:100000000C942A000C9458001895000018950000D4
:10001000189500001895000018950000189500002C
:10002000189500001895000018950000189500001C
:10003000189500001895000018950000189500000C
:1000400018950000189500001895000018950000FC
:10005000189500008FE58DBFC8E3E0E24E2E84E0E6
:100060008EBFD4E0F4E05F2EA89584B7082E877F7A
:1000700084BF88E1992781BD91BDEEEFF3E0A0E652
:10008000B0E088278D933197E9F783E389B980E061
:1000900080BD88E18AB9662485B78C7F826085BF80
:1000A00078947BB770647BBF0C945400F894FFCFB6
:1000B0000F921F922F923F924F925F927F92AF9238
:1000C000BF920F931F932F933F934F935F936F9321
:1000D0007F938F939F93AF93BF93CF93DF93EF93D0
:1000E000FF938FB78F93A0E6B0E00D911C910F5F47
:1000F0001F4FA0E6B0E00D931C93A5E6B0E00D9174
:100100001C910F5F1F4FA5E6B0E00D931C93A0E676
:10011000B0E00D911C91013050E0150711F00C94E6
:10012000A300A2E6B0E0E5E6F0E00E94EA00A2E665
:10013000B0E00E94C1000E94C70080E090E0A0E60D
:10014000B0E08D939C938F918FBFFF91EF91DF91E2
:10015000CF91BF91AF919F918F917F916F915F915F
:100160004F913F912F911F910F91BF90AF907F9032
:100170005F904F903F902F901F900F901895A8E0A0
:10018000B4E08D91882311F005D0FBCF08958DE068
:1001900001D08AE05D9BFECF8CB908953197F1F7CD
:1001A0000895689462F80895E89462F808950191BA
:1001B0001191219130810895000F111F221F331FCB
:1001C000089500951095209530950F5F1F4F2F4F84
:1001D0003F4F0895019110810CC00E94D7000BC0C1
:1001E0000191108117FF05C03FEF2FEF04C0008180
:1001F00011272227332737FF03C0E3DF8DE28D93DA
:10020000CF92DF92EF92AA24BB24CC24DD24EE24EB
:1002100040E2EAE0FF2755E093E38081890F87FD04
:100220009F7083FD907F891B81935A95A9F7C4DF46
:10023000AA1CBB1CCC1CDD1CEE1C4A9551F7E89493
:10024000EFE0FF2782910CD0EB30E0F71EF06894CE
:100250008A2D0AD088278D93EF90DF90CF90089554
:10026000982F829501D0892F8F70805D26F0803382
:0A02700009F4089568948D93089531
:00000001FF
